{
  "abi": [
    {
      "inputs": [
        {
          "internalType": "uint256",
          "name": "x",
          "type": "uint256"
        },
        {
          "internalType": "uint256",
          "name": "y",
          "type": "uint256"
        }
      ],
      "name": "add",
      "outputs": [
        {
          "internalType": "uint256",
          "name": "",
          "type": "uint256"
        }
      ],
      "stateMutability": "pure",
      "type": "function"
    },
    {
      "inputs": [
        {
          "internalType": "uint256",
          "name": "x",
          "type": "uint256"
        },
        {
          "internalType": "uint256",
          "name": "y",
          "type": "uint256"
        }
      ],
      "name": "sub",
      "outputs": [
        {
          "internalType": "uint256",
          "name": "",
          "type": "uint256"
        }
      ],
      "stateMutability": "pure",
      "type": "function"
    }
  ],
  "bytecode": {
    "object": "0x608060405234801561001057600080fd5b50610111806100206000396000f3fe6080604052348015600f57600080fd5b506004361060325760003560e01c8063771602f7146037578063b67d77c5146058575b600080fd5b604660423660046084565b6067565b60405190815260200160405180910390f35b604660633660046084565b607a565b60006071828460bb565b90505b92915050565b60006071828460cb565b60008060408385031215609657600080fd5b50508035926020909101359150565b634e487b7160e01b600052601160045260246000fd5b80820180821115607457607460a5565b81810381811115607457607460a556fea2646970667358221220517938228bd2784820d87e891c258016b32fe7c266a1e156460979359f95ec5f64736f6c63430008150033",
    "linkReferences": {}
  },
  "methodIdentifiers": {
    "add(uint256,uint256)": "771602f7",
    "sub(uint256,uint256)": "b67d77c5"
  },
  "id": 21
}