{
  "abi": [
    {
      "inputs": [],
      "name": "addr",
      "outputs": [
        {
          "internalType": "address",
          "name": "",
          "type": "address"
        }
      ],
      "stateMutability": "view",
      "type": "function"
    },
    {
      "inputs": [],
      "name": "b",
      "outputs": [
        {
          "internalType": "bool",
          "name": "",
          "type": "bool"
        }
      ],
      "stateMutability": "view",
      "type": "function"
    },
    {
      "inputs": [],
      "name": "b32",
      "outputs": [
        {
          "internalType": "bytes32",
          "name": "",
          "type": "bytes32"
        }
      ],
      "stateMutability": "view",
      "type": "function"
    },
    {
      "inputs": [],
      "name": "i",
      "outputs": [
        {
          "internalType": "int256",
          "name": "",
          "type": "int256"
        }
      ],
      "stateMutability": "view",
      "type": "function"
    },
    {
      "inputs": [],
      "name": "u",
      "outputs": [
        {
          "internalType": "uint256",
          "name": "",
          "type": "uint256"
        }
      ],
      "stateMutability": "view",
      "type": "function"
    }
  ],
  "bytecode": {
    "object": "0x60806040526000805460ff19166001908117909155606e199055607b600255600380546001600160a01b031916735b38da6a701c568545dcfcb03fcb875f56beddc41790557f89c58ced8a9078bdef2bb60f22e58eeff7dbfed6c2dff3e7c508b629295926fa60045534801561007457600080fd5b5060fa806100836000396000f3fe6080604052348015600f57600080fd5b506004361060505760003560e01c80634df7e3d0146055578063767800de146076578063c6a898c514609f578063e5aa3d581460b4578063f8aab2381460bc575b600080fd5b60005460619060ff1681565b60405190151581526020015b60405180910390f35b6003546088906001600160a01b031681565b6040516001600160a01b039091168152602001606d565b60a760025481565b604051908152602001606d565b60a760015481565b60a76004548156fea26469706673582212205866a64eea8d3381aa173a111bf1e8ab458c87c73cdd10868c2e0fd9873ebb5d64736f6c63430008150033",
    "linkReferences": {}
  },
  "methodIdentifiers": {
    "addr()": "767800de",
    "b()": "4df7e3d0",
    "b32()": "f8aab238",
    "i()": "e5aa3d58",
    "u()": "c6a898c5"
  },
  "id": 20
}